{
  "abi": [
    {
      "inputs": [],
      "name": "getNumber",
      "outputs": [
        {
          "internalType": "uint256",
          "name": "",
          "type": "uint256"
        }
      ],
      "stateMutability": "nonpayable",
      "type": "function"
    },
    {
      "inputs": [],
      "name": "getNumberAndCollect",
      "outputs": [
        {
          "internalType": "uint256",
          "name": "",
          "type": "uint256"
        }
      ],
      "stateMutability": "nonpayable",
      "type": "function"
    },
    {
      "inputs": [],
      "name": "number",
      "outputs": [
        {
          "internalType": "uint256",
          "name": "",
          "type": "uint256"
        }
      ],
      "stateMutability": "view",
      "type": "function"
    },
    {
      "inputs": [
        {
          "internalType": "uint256",
          "name": "num",
          "type": "uint256"
        }
      ],
      "name": "setNumber",
      "outputs": [],
      "stateMutability": "nonpayable",
      "type": "function"
    }
  ],
  "bytecode": {
    "object": "0x608060405234801561001057600080fd5b5060cd8061001f6000396000f3fe6080604052348015600f57600080fd5b506004361060465760003560e01c806324cab40114604b5780633fb5c1cb1460655780638381f58a146077578063f2c9ecd814604b575b600080fd5b600080549080555b60405190815260200160405180910390f35b60756070366004607f565b600055565b005b605360005481565b600060208284031215609057600080fd5b503591905056fea2646970667358221220f96e3d2cf1eb383b265b8e26cf49ba24e7acbc9b159a8d4f058b762bfc6eb51764736f6c63430008150033",
    "linkReferences": {}
  },
  "methodIdentifiers": {
    "getNumber()": "f2c9ecd8",
    "getNumberAndCollect()": "24cab401",
    "number()": "8381f58a",
    "setNumber(uint256)": "3fb5c1cb"
  },
  "id": 18
}