{
  "abi": [
    {
      "inputs": [
        {
          "internalType": "uint256",
          "name": "number",
          "type": "uint256"
        }
      ],
      "name": "returnExternal",
      "outputs": [
        {
          "internalType": "uint256",
          "name": "",
          "type": "uint256"
        }
      ],
      "stateMutability": "pure",
      "type": "function"
    },
    {
      "inputs": [
        {
          "internalType": "uint256",
          "name": "number",
          "type": "uint256"
        }
      ],
      "name": "returnPublic",
      "outputs": [
        {
          "internalType": "uint256",
          "name": "",
          "type": "uint256"
        }
      ],
      "stateMutability": "pure",
      "type": "function"
    }
  ],
  "bytecode": {
    "object": "0x6080604052348015600f57600080fd5b5060a58061001e6000396000f3fe6080604052348015600f57600080fd5b506004361060325760003560e01c806373dc7daa14603757806392382eae146037575b600080fd5b604560423660046057565b90565b60405190815260200160405180910390f35b600060208284031215606857600080fd5b503591905056fea26469706673582212202618abf7025745edad78d9bb6c437c9b4e518641c4d02853cd8b570a4285092864736f6c63430008150033",
    "linkReferences": {}
  },
  "methodIdentifiers": {
    "returnExternal(uint256)": "92382eae",
    "returnPublic(uint256)": "73dc7daa"
  },
  "id": 32
}