{
  "abi": [
    {
      "inputs": [
        {
          "internalType": "uint256",
          "name": "number",
          "type": "uint256"
        }
      ],
      "name": "generalRequire",
      "outputs": [],
      "stateMutability": "pure",
      "type": "function"
    },
    {
      "inputs": [
        {
          "internalType": "uint256",
          "name": "number",
          "type": "uint256"
        }
      ],
      "name": "generalReturn",
      "outputs": [
        {
          "internalType": "bool",
          "name": "",
          "type": "bool"
        }
      ],
      "stateMutability": "pure",
      "type": "function"
    },
    {
      "inputs": [
        {
          "internalType": "uint256",
          "name": "number",
          "type": "uint256"
        }
      ],
      "name": "optimalRequire",
      "outputs": [],
      "stateMutability": "pure",
      "type": "function"
    },
    {
      "inputs": [
        {
          "internalType": "uint256",
          "name": "number",
          "type": "uint256"
        }
      ],
      "name": "optimalReturn",
      "outputs": [
        {
          "internalType": "bool",
          "name": "",
          "type": "bool"
        }
      ],
      "stateMutability": "pure",
      "type": "function"
    }
  ],
  "bytecode": {
    "object": "0x608060405234801561001057600080fd5b5060f88061001f6000396000f3fe6080604052348015600f57600080fd5b506004361060465760003560e01c8063439737ff14604b5780634e4634d714605c5780635b3ade8114606b578063dd8a4a2d14606b575b600080fd5b605a605636600460aa565b608f565b005b605a606736600460aa565b609e565b607b607636600460aa565b151590565b604051901515815260200160405180910390f35b60008111609b57600080fd5b50565b80600003609b57600080fd5b60006020828403121560bb57600080fd5b503591905056fea26469706673582212205594a714cba9b4053235043a479a5a51e7b426685eea751f69ebac2b362fc7ec64736f6c63430008150033",
    "linkReferences": {}
  },
  "methodIdentifiers": {
    "generalRequire(uint256)": "4e4634d7",
    "generalReturn(uint256)": "dd8a4a2d",
    "optimalRequire(uint256)": "439737ff",
    "optimalReturn(uint256)": "5b3ade81"
  },
  "id": 22
}