{
  "abi": [
    {
      "inputs": [
        {
          "internalType": "uint256",
          "name": "number",
          "type": "uint256"
        }
      ],
      "name": "badNesting",
      "outputs": [
        {
          "internalType": "string",
          "name": "",
          "type": "string"
        }
      ],
      "stateMutability": "pure",
      "type": "function"
    },
    {
      "inputs": [
        {
          "internalType": "uint256",
          "name": "number",
          "type": "uint256"
        }
      ],
      "name": "goodNesting",
      "outputs": [
        {
          "internalType": "string",
          "name": "",
          "type": "string"
        }
      ],
      "stateMutability": "pure",
      "type": "function"
    }
  ],
  "bytecode": {
    "object": "0x608060405234801561001057600080fd5b506101d4806100206000396000f3fe608060405234801561001057600080fd5b50600436106100365760003560e01c80639e0538561461003b578063c0ca164f14610064575b600080fd5b61004e610049366004610137565b610077565b60405161005b9190610150565b60405180910390f35b61004e610072366004610137565b6100f3565b60606000821180156100895750606482105b8015610096575081603214155b156100c657505060408051808201909152600f81526e22bc3832b1ba32b210273ab6b132b960891b602082015290565b50506040805180820190915260118152702ab732bc3832b1ba32b210273ab6b132b960791b602082015290565b606081156100c65760648210156100c657816032146100c657505060408051808201909152600f81526e22bc3832b1ba32b210273ab6b132b960891b602082015290565b60006020828403121561014957600080fd5b5035919050565b600060208083528351808285015260005b8181101561017d57858101830151858201604001528201610161565b506000604082860101526040601f19601f830116850101925050509291505056fea264697066735822122099353f6c59430c219b4e86a756253a91f3c2f395a9bc9a0c868c51a741fac4e564736f6c63430008150033",
    "linkReferences": {}
  },
  "methodIdentifiers": {
    "badNesting(uint256)": "9e053856",
    "goodNesting(uint256)": "c0ca164f"
  },
  "id": 19
}