{
  "abi": [
    {
      "inputs": [],
      "name": "loopGeneral",
      "outputs": [],
      "stateMutability": "pure",
      "type": "function"
    },
    {
      "inputs": [],
      "name": "loopUnchecked",
      "outputs": [],
      "stateMutability": "pure",
      "type": "function"
    }
  ],
  "bytecode": {
    "object": "0x608060405234801561001057600080fd5b5060e78061001f6000396000f3fe6080604052348015600f57600080fd5b506004361060325760003560e01c806387cf7d67146037578063b0a9d3a314603f575b600080fd5b603d6045565b005b603d6065565b60005b601481101560625760010180605b81608b565b9150506048565b50565b60005b601481101560625780607881608b565b9150508080608490608b565b9150506068565b60006001820160aa57634e487b7160e01b600052601160045260246000fd5b506001019056fea2646970667358221220c4714d9a3b14da09f0bcce0f6a6979613a923d93fabdb823c3a7df8e6aed8d0c64736f6c63430008150033",
    "linkReferences": {}
  },
  "methodIdentifiers": {
    "loopGeneral()": "b0a9d3a3",
    "loopUnchecked()": "87cf7d67"
  },
  "id": 28
}