{
  "abi": [
    {
      "inputs": [],
      "name": "badRequire",
      "outputs": [
        {
          "internalType": "uint256",
          "name": "",
          "type": "uint256"
        }
      ],
      "stateMutability": "view",
      "type": "function"
    },
    {
      "inputs": [],
      "name": "goodRequire",
      "outputs": [
        {
          "internalType": "uint256",
          "name": "",
          "type": "uint256"
        }
      ],
      "stateMutability": "view",
      "type": "function"
    },
    {
      "inputs": [],
      "name": "number",
      "outputs": [
        {
          "internalType": "uint256",
          "name": "",
          "type": "uint256"
        }
      ],
      "stateMutability": "view",
      "type": "function"
    },
    {
      "inputs": [
        {
          "internalType": "uint256",
          "name": "num",
          "type": "uint256"
        }
      ],
      "name": "setNumber",
      "outputs": [],
      "stateMutability": "nonpayable",
      "type": "function"
    }
  ],
  "bytecode": {
    "object": "0x608060405234801561001057600080fd5b50610160806100206000396000f3fe608060405234801561001057600080fd5b506004361061004c5760003560e01c80633fb5c1cb14610051578063593b0df4146100665780635fd119ee146100805780638381f58a14610088575b600080fd5b61006461005f366004610111565b600055565b005b61006e610091565b60405190815260200160405180910390f35b61006e6100d3565b61006e60005481565b600060056000541180156100a75750600a600054115b80156100b55750600f600054115b80156100c357506014600054115b6100cc57600080fd5b5060005490565b60006005600054116100e457600080fd5b600a600054116100f357600080fd5b600f6000541161010257600080fd5b6014600054116100cc57600080fd5b60006020828403121561012357600080fd5b503591905056fea264697066735822122019908ee4ee0cdf0dfa95d2371e950f22ff0d9cbdfa43313dd2c7dbea2042d1b464736f6c63430008150033",
    "linkReferences": {}
  },
  "methodIdentifiers": {
    "badRequire()": "593b0df4",
    "goodRequire()": "5fd119ee",
    "number()": "8381f58a",
    "setNumber(uint256)": "3fb5c1cb"
  },
  "id": 29
}