{
  "abi": [
    {
      "inputs": [],
      "stateMutability": "nonpayable",
      "type": "constructor"
    },
    {
      "inputs": [],
      "name": "Unauthorized",
      "type": "error"
    },
    {
      "inputs": [],
      "name": "customErrors",
      "outputs": [],
      "stateMutability": "view",
      "type": "function"
    },
    {
      "inputs": [],
      "name": "myAddress",
      "outputs": [
        {
          "internalType": "address",
          "name": "",
          "type": "address"
        }
      ],
      "stateMutability": "view",
      "type": "function"
    },
    {
      "inputs": [],
      "name": "revertStrings",
      "outputs": [],
      "stateMutability": "view",
      "type": "function"
    }
  ],
  "bytecode": {
    "object": "0x608060405234801561001057600080fd5b50600080546001600160a01b0319163317905561012a806100326000396000f3fe6080604052348015600f57600080fd5b5060043610603c5760003560e01c80630b40ed1314604157806326b85ee11460495780632b908906146077575b600080fd5b6047607d565b005b600054605b906001600160a01b031681565b6040516001600160a01b03909116815260200160405180910390f35b604760cb565b6000546001600160a01b0316331460c95760405162461bcd60e51b815260206004820152600c60248201526b155b985d5d1a1bdc9a5e995960a21b604482015260640160405180910390fd5b565b6000546001600160a01b0316331460c9576040516282b42960e81b815260040160405180910390fdfea264697066735822122088383777fdc49f5352740bcff5ffd2304e725d1244ab24e62360a9d2ad84ccdd64736f6c63430008150033",
    "linkReferences": {}
  },
  "methodIdentifiers": {
    "customErrors()": "2b908906",
    "myAddress()": "26b85ee1",
    "revertStrings()": "0b40ed13"
  },
  "id": 23
}