{
  "abi": [
    {
      "inputs": [
        {
          "internalType": "uint256",
          "name": "number1",
          "type": "uint256"
        },
        {
          "internalType": "uint256",
          "name": "number2",
          "type": "uint256"
        }
      ],
      "name": "singleSwap",
      "outputs": [
        {
          "internalType": "uint256",
          "name": "",
          "type": "uint256"
        },
        {
          "internalType": "uint256",
          "name": "",
          "type": "uint256"
        }
      ],
      "stateMutability": "pure",
      "type": "function"
    },
    {
      "inputs": [
        {
          "internalType": "uint256",
          "name": "number1",
          "type": "uint256"
        },
        {
          "internalType": "uint256",
          "name": "number2",
          "type": "uint256"
        }
      ],
      "name": "tempSwap",
      "outputs": [
        {
          "internalType": "uint256",
          "name": "",
          "type": "uint256"
        },
        {
          "internalType": "uint256",
          "name": "",
          "type": "uint256"
        }
      ],
      "stateMutability": "pure",
      "type": "function"
    }
  ],
  "bytecode": {
    "object": "0x6080604052348015600f57600080fd5b5060b58061001e6000396000f3fe6080604052348015600f57600080fd5b506004361060325760003560e01c80635479ebd91460375780639b1d0ebc146037575b600080fd5b60456042366004605e565b91565b6040805192835260208301919091520160405180910390f35b60008060408385031215607057600080fd5b5050803592602090910135915056fea264697066735822122042b77d74020b93e173ba3d8d041fa452ab9d99d77e0a1a026659531e4d42059d64736f6c63430008150033",
    "linkReferences": {}
  },
  "methodIdentifiers": {
    "singleSwap(uint256,uint256)": "5479ebd9",
    "tempSwap(uint256,uint256)": "9b1d0ebc"
  },
  "id": 19
}