{
  "abi": [
    {
      "inputs": [],
      "name": "badDataType",
      "outputs": [
        {
          "internalType": "uint256",
          "name": "",
          "type": "uint256"
        }
      ],
      "stateMutability": "nonpayable",
      "type": "function"
    },
    {
      "inputs": [],
      "name": "goodDataType",
      "outputs": [
        {
          "internalType": "uint256",
          "name": "",
          "type": "uint256"
        }
      ],
      "stateMutability": "nonpayable",
      "type": "function"
    },
    {
      "inputs": [],
      "name": "lastGasUsedOptimized",
      "outputs": [
        {
          "internalType": "uint256",
          "name": "",
          "type": "uint256"
        }
      ],
      "stateMutability": "view",
      "type": "function"
    },
    {
      "inputs": [],
      "name": "lastGasUsedRegular",
      "outputs": [
        {
          "internalType": "uint256",
          "name": "",
          "type": "uint256"
        }
      ],
      "stateMutability": "view",
      "type": "function"
    }
  ],
  "bytecode": {
    "object": "0x60806040526000805460ff1916815560015534801561001d57600080fd5b506102178061002d6000396000f3fe608060405234801561001057600080fd5b506004361061004c5760003560e01c806312d95fab14610051578063578e4ec61461006b5780636eecf67b14610073578063ea5287131461007c575b600080fd5b610059610085565b60405190815260200160405180910390f35b6100596100f9565b61005960025481565b61005960035481565b60006032815a905060005b8260ff168160ff1610156100e157600080546001919081906100b690849060ff16610164565b92506101000a81548160ff021916908360ff16021790555080806100d990610183565b915050610090565b505a6100ed90826101a2565b60028190559392505050565b60006032815a905060005b8281101561013657600180600082825461011e91906101b5565b9091555081905061012e816101c8565b915050610104565b505a61014290826101a2565b60038190559392505050565b634e487b7160e01b600052601160045260246000fd5b60ff818116838216019081111561017d5761017d61014e565b92915050565b600060ff821660ff81036101995761019961014e565b60010192915050565b8181038181111561017d5761017d61014e565b8082018082111561017d5761017d61014e565b6000600182016101da576101da61014e565b506001019056fea2646970667358221220099249c3293ee819112c2bd73eee8af02232fa4310f48069eb2d62d3d339502e64736f6c63430008150033",
    "linkReferences": {}
  },
  "methodIdentifiers": {
    "badDataType()": "12d95fab",
    "goodDataType()": "578e4ec6",
    "lastGasUsedOptimized()": "ea528713",
    "lastGasUsedRegular()": "6eecf67b"
  },
  "id": 18
}