{
  "abi": [
    {
      "inputs": [],
      "stateMutability": "payable",
      "type": "constructor"
    },
    {
      "inputs": [],
      "name": "badGetBalance",
      "outputs": [
        {
          "internalType": "uint256",
          "name": "",
          "type": "uint256"
        }
      ],
      "stateMutability": "view",
      "type": "function"
    },
    {
      "inputs": [],
      "name": "deposit",
      "outputs": [],
      "stateMutability": "payable",
      "type": "function"
    },
    {
      "inputs": [],
      "name": "goodGetBalance",
      "outputs": [
        {
          "internalType": "uint256",
          "name": "",
          "type": "uint256"
        }
      ],
      "stateMutability": "view",
      "type": "function"
    },
    {
      "inputs": [],
      "name": "storedBalance",
      "outputs": [
        {
          "internalType": "uint256",
          "name": "",
          "type": "uint256"
        }
      ],
      "stateMutability": "view",
      "type": "function"
    }
  ],
  "bytecode": {
    "object": "0x608060405247600055610100806100176000396000f3fe608060405260043610603a5760003560e01c806379e62f9d14603f578063867c36d214605f578063d0e30db0146072578063e9eca99414607a575b600080fd5b348015604a57600080fd5b50475b60405190815260200160405180910390f35b348015606a57600080fd5b50600054604d565b6078608e565b005b348015608557600080fd5b50604d60005481565b34600080828254609d919060a4565b9091555050565b8082018082111560c457634e487b7160e01b600052601160045260246000fd5b9291505056fea2646970667358221220caf3a95a6f1186bebdf37dfdd4d27ad992d0b6ffa4189267a689ee5bff0511da64736f6c63430008150033",
    "linkReferences": {}
  },
  "methodIdentifiers": {
    "badGetBalance()": "79e62f9d",
    "deposit()": "d0e30db0",
    "goodGetBalance()": "867c36d2",
    "storedBalance()": "e9eca994"
  },
  "id": 19
}