{
  "abi": [
    {
      "inputs": [
        {
          "internalType": "uint256[]",
          "name": "myArray",
          "type": "uint256[]"
        }
      ],
      "name": "addCD",
      "outputs": [
        {
          "internalType": "uint256",
          "name": "sum",
          "type": "uint256"
        }
      ],
      "stateMutability": "pure",
      "type": "function"
    },
    {
      "inputs": [
        {
          "internalType": "uint256[]",
          "name": "myArray",
          "type": "uint256[]"
        }
      ],
      "name": "addMem",
      "outputs": [
        {
          "internalType": "uint256",
          "name": "sum",
          "type": "uint256"
        }
      ],
      "stateMutability": "pure",
      "type": "function"
    }
  ],
  "bytecode": {
    "object": "0x608060405234801561001057600080fd5b506102ec806100206000396000f3fe608060405234801561001057600080fd5b50600436106100365760003560e01c806301783b8d1461003b57806349ba468814610060575b600080fd5b61004e61004936600461010f565b610073565b60405190815260200160405180910390f35b61004e61006e36600461019a565b6100c0565b600081815b818110156100b85784848281811061009257610092610258565b90506020020135836100a49190610284565b9250806100b08161029d565b915050610078565b505092915050565b8051600090815b81811015610108578381815181106100e1576100e1610258565b6020026020010151836100f49190610284565b9250806101008161029d565b9150506100c7565b5050919050565b6000806020838503121561012257600080fd5b823567ffffffffffffffff8082111561013a57600080fd5b818501915085601f83011261014e57600080fd5b81358181111561015d57600080fd5b8660208260051b850101111561017257600080fd5b60209290920196919550909350505050565b634e487b7160e01b600052604160045260246000fd5b600060208083850312156101ad57600080fd5b823567ffffffffffffffff808211156101c557600080fd5b818501915085601f8301126101d957600080fd5b8135818111156101eb576101eb610184565b8060051b604051601f19603f8301168101818110858211171561021057610210610184565b60405291825284820192508381018501918883111561022e57600080fd5b938501935b8285101561024c57843584529385019392850192610233565b98975050505050505050565b634e487b7160e01b600052603260045260246000fd5b634e487b7160e01b600052601160045260246000fd5b808201808211156102975761029761026e565b92915050565b6000600182016102af576102af61026e565b506001019056fea2646970667358221220da9910e58c3bb3a99f7c3b697fcac32d73d47fc906717bb4110c3a01cd03f9e464736f6c63430008150033",
    "linkReferences": {}
  },
  "methodIdentifiers": {
    "addCD(uint256[])": "01783b8d",
    "addMem(uint256[])": "49ba4688"
  },
  "id": 18
}