{
  "abi": [
    {
      "inputs": [],
      "name": "getBytes32",
      "outputs": [
        {
          "internalType": "bytes32",
          "name": "",
          "type": "bytes32"
        }
      ],
      "stateMutability": "view",
      "type": "function"
    },
    {
      "inputs": [],
      "name": "myBytes32",
      "outputs": [
        {
          "internalType": "bytes32",
          "name": "",
          "type": "bytes32"
        }
      ],
      "stateMutability": "view",
      "type": "function"
    },
    {
      "inputs": [
        {
          "internalType": "bytes32",
          "name": "inputBytes32",
          "type": "bytes32"
        }
      ],
      "name": "setBytes32",
      "outputs": [],
      "stateMutability": "nonpayable",
      "type": "function"
    }
  ],
  "bytecode": {
    "object": "0x608060405234801561001057600080fd5b5060bf8061001f6000396000f3fe6080604052348015600f57600080fd5b5060043610603c5760003560e01c80631f9030371460415780634b3e7e0c146057578063c2b12a7314605f575b600080fd5b6000545b60405190815260200160405180910390f35b604560005481565b606f606a3660046071565b600055565b005b600060208284031215608257600080fd5b503591905056fea2646970667358221220627e1b999bcec2f0a98867fc8a6df6aead1d6081fcfecf06d5f024e53290413864736f6c63430008150033",
    "linkReferences": {}
  },
  "methodIdentifiers": {
    "getBytes32()": "1f903037",
    "myBytes32()": "4b3e7e0c",
    "setBytes32(bytes32)": "c2b12a73"
  },
  "id": 35
}