{
  "abi": [
    {
      "inputs": [],
      "name": "getString",
      "outputs": [
        {
          "internalType": "string",
          "name": "",
          "type": "string"
        }
      ],
      "stateMutability": "view",
      "type": "function"
    },
    {
      "inputs": [],
      "name": "myString",
      "outputs": [
        {
          "internalType": "string",
          "name": "",
          "type": "string"
        }
      ],
      "stateMutability": "view",
      "type": "function"
    },
    {
      "inputs": [
        {
          "internalType": "string",
          "name": "inputString",
          "type": "string"
        }
      ],
      "name": "setString",
      "outputs": [],
      "stateMutability": "nonpayable",
      "type": "function"
    }
  ],
  "bytecode": {
    "object": "0x608060405234801561001057600080fd5b50610445806100206000396000f3fe608060405234801561001057600080fd5b50600436106100415760003560e01c8063492bfa18146100465780637fcaf6661461006457806389ea642f14610079575b600080fd5b61004e610081565b60405161005b91906101b1565b60405180910390f35b610077610072366004610215565b61010f565b005b61004e61011f565b6000805461008e906102c6565b80601f01602080910402602001604051908101604052809291908181526020018280546100ba906102c6565b80156101075780601f106100dc57610100808354040283529160200191610107565b820191906000526020600020905b8154815290600101906020018083116100ea57829003601f168201915b505050505081565b600061011b828261034f565b5050565b60606000805461012e906102c6565b80601f016020809104026020016040519081016040528092919081815260200182805461015a906102c6565b80156101a75780601f1061017c576101008083540402835291602001916101a7565b820191906000526020600020905b81548152906001019060200180831161018a57829003601f168201915b5050505050905090565b600060208083528351808285015260005b818110156101de578581018301518582016040015282016101c2565b506000604082860101526040601f19601f8301168501019250505092915050565b634e487b7160e01b600052604160045260246000fd5b60006020828403121561022757600080fd5b813567ffffffffffffffff8082111561023f57600080fd5b818401915084601f83011261025357600080fd5b813581811115610265576102656101ff565b604051601f8201601f19908116603f0116810190838211818310171561028d5761028d6101ff565b816040528281528760208487010111156102a657600080fd5b826020860160208301376000928101602001929092525095945050505050565b600181811c908216806102da57607f821691505b6020821081036102fa57634e487b7160e01b600052602260045260246000fd5b50919050565b601f82111561034a57600081815260208120601f850160051c810160208610156103275750805b601f850160051c820191505b8181101561034657828155600101610333565b5050505b505050565b815167ffffffffffffffff811115610369576103696101ff565b61037d8161037784546102c6565b84610300565b602080601f8311600181146103b2576000841561039a5750858301515b600019600386901b1c1916600185901b178555610346565b600085815260208120601f198616915b828110156103e1578886015182559484019460019091019084016103c2565b50858210156103ff5787850151600019600388901b60f8161c191681555b5050505050600190811b0190555056fea2646970667358221220ae33632a6af8ca3a386fad462250e803b73096bb2969e6bee9de29b112ecbec464736f6c63430008150033",
    "linkReferences": {}
  },
  "methodIdentifiers": {
    "getString()": "89ea642f",
    "myString()": "492bfa18",
    "setString(string)": "7fcaf666"
  },
  "id": 35
}