{
  "abi": [
    {
      "inputs": [],
      "name": "generalInit",
      "outputs": [
        {
          "internalType": "uint256",
          "name": "",
          "type": "uint256"
        }
      ],
      "stateMutability": "view",
      "type": "function"
    },
    {
      "inputs": [
        {
          "internalType": "uint256",
          "name": "",
          "type": "uint256"
        }
      ],
      "name": "myArray",
      "outputs": [
        {
          "internalType": "uint256",
          "name": "",
          "type": "uint256"
        }
      ],
      "stateMutability": "view",
      "type": "function"
    },
    {
      "inputs": [],
      "name": "optimalInit",
      "outputs": [
        {
          "internalType": "uint256",
          "name": "",
          "type": "uint256"
        }
      ],
      "stateMutability": "view",
      "type": "function"
    }
  ],
  "bytecode": {
    "object": "0x61026060405260016080908152600260a052600360c052600460e052600561010052600661012052600761014052600861016052600961018052600a6101a052600b6101c052600c6101e052600d61020052600e61022052600f61024081905261006b9160009161007e565b5034801561007857600080fd5b506100e3565b8280548282559060005260206000209081019282156100be579160200282015b828111156100be578251829060ff1690559160200191906001019061009e565b506100ca9291506100ce565b5090565b5b808211156100ca57600081556001016100cf565b6101eb806100f26000396000f3fe608060405234801561001057600080fd5b50600436106100415760003560e01c806397a6b8c214610046578063cc3e57d914610060578063d426929714610073575b600080fd5b61004e61007b565b60405190815260200160405180910390f35b61004e61006e36600461013e565b6100d0565b61004e6100f1565b600080548190815b818110156100c8576000818154811061009e5761009e610157565b9060005260206000200154836100b49190610183565b9250806100c08161019c565b915050610083565b509092915050565b600081815481106100e057600080fd5b600091825260209091200154905081565b600080548190815b818110156100c8576000818154811061011457610114610157565b90600052602060002001548361012a9190610183565b9250806101368161019c565b9150506100f9565b60006020828403121561015057600080fd5b5035919050565b634e487b7160e01b600052603260045260246000fd5b634e487b7160e01b600052601160045260246000fd5b808201808211156101965761019661016d565b92915050565b6000600182016101ae576101ae61016d565b506001019056fea2646970667358221220d89789bfa43c5b819fcdf0c514541e3afddd8b24eb45e79b1f905ee6c3d9850564736f6c63430008150033",
    "linkReferences": {}
  },
  "methodIdentifiers": {
    "generalInit()": "97a6b8c2",
    "myArray(uint256)": "cc3e57d9",
    "optimalInit()": "d4269297"
  },
  "id": 25
}