{
  "abi": [
    {
      "inputs": [
        {
          "internalType": "uint256",
          "name": "number",
          "type": "uint256"
        }
      ],
      "name": "bitwiseDivide",
      "outputs": [
        {
          "internalType": "uint256",
          "name": "",
          "type": "uint256"
        }
      ],
      "stateMutability": "pure",
      "type": "function"
    },
    {
      "inputs": [
        {
          "internalType": "uint256",
          "name": "number",
          "type": "uint256"
        }
      ],
      "name": "divideByTwo",
      "outputs": [
        {
          "internalType": "uint256",
          "name": "",
          "type": "uint256"
        }
      ],
      "stateMutability": "pure",
      "type": "function"
    }
  ],
  "bytecode": {
    "object": "0x608060405234801561001057600080fd5b5060e98061001f6000396000f3fe6080604052348015600f57600080fd5b506004361060325760003560e01c80631e05e80b1460375780638d66b29c146058575b600080fd5b60466042366004607a565b6069565b60405190815260200160405180910390f35b60466063366004607a565b60011c90565b600060746002836092565b92915050565b600060208284031215608b57600080fd5b5035919050565b60008260ae57634e487b7160e01b600052601260045260246000fd5b50049056fea26469706673582212200e5a013711a618d115e059aad942c5187584c18854be5454c5ac45aa664b0c1264736f6c63430008150033",
    "linkReferences": {}
  },
  "methodIdentifiers": {
    "bitwiseDivide(uint256)": "8d66b29c",
    "divideByTwo(uint256)": "1e05e80b"
  },
  "id": 18
}