{
  "abi": [
    {
      "inputs": [
        {
          "internalType": "uint256",
          "name": "number",
          "type": "uint256"
        }
      ],
      "name": "badLogic",
      "outputs": [
        {
          "internalType": "uint256",
          "name": "",
          "type": "uint256"
        }
      ],
      "stateMutability": "pure",
      "type": "function"
    },
    {
      "inputs": [
        {
          "internalType": "uint256",
          "name": "number",
          "type": "uint256"
        }
      ],
      "name": "goodLogic",
      "outputs": [
        {
          "internalType": "uint256",
          "name": "",
          "type": "uint256"
        }
      ],
      "stateMutability": "pure",
      "type": "function"
    }
  ],
  "bytecode": {
    "object": "0x608060405234801561001057600080fd5b5060e48061001f6000396000f3fe6080604052348015600f57600080fd5b506004361060325760003560e01c80633a501ee61460375780633fe3f52e146058575b600080fd5b604660423660046096565b6067565b60405190815260200160405180910390f35b604660633660046096565b6085565b6000808211607457600080fd5b8115607d575090565b506000919050565b6000808211609257600080fd5b5090565b60006020828403121560a757600080fd5b503591905056fea2646970667358221220a6ac9865c19d8d857ad3b0a29a2722ae5e5b758b3051d134f5f843410b11e0ef64736f6c63430008150033",
    "linkReferences": {}
  },
  "methodIdentifiers": {
    "badLogic(uint256)": "3a501ee6",
    "goodLogic(uint256)": "3fe3f52e"
  },
  "id": 33
}