{
  "abi": [
    {
      "inputs": [],
      "stateMutability": "nonpayable",
      "type": "constructor"
    },
    {
      "inputs": [],
      "name": "generalRevert",
      "outputs": [],
      "stateMutability": "view",
      "type": "function"
    },
    {
      "inputs": [],
      "name": "myAddress",
      "outputs": [
        {
          "internalType": "address",
          "name": "",
          "type": "address"
        }
      ],
      "stateMutability": "view",
      "type": "function"
    },
    {
      "inputs": [],
      "name": "optimalRevert",
      "outputs": [],
      "stateMutability": "view",
      "type": "function"
    }
  ],
  "bytecode": {
    "object": "0x608060405234801561001057600080fd5b50600080546001600160a01b0319163317905561019c806100326000396000f3fe608060405234801561001057600080fd5b50600436106100415760003560e01c806326b85ee114610046578063401d65ca14610075578063593c223b1461007f575b600080fd5b600054610059906001600160a01b031681565b6040516001600160a01b03909116815260200160405180910390f35b61007d610087565b005b61007d610120565b6000546001600160a01b0316331461011e5760405162461bcd60e51b815260206004820152604960248201527f416464726573732076616c75652073686f756c64206265206f776e657221204c60448201527f6f6e67207265766572742073746174656d656e747320617265206e6f7420707260648201526832b332b930b136329760b91b608482015260a4015b60405180910390fd5b565b6000546001600160a01b0316331461011e5760405162461bcd60e51b81526020600482015260096024820152682737ba1027bbb732b960b91b604482015260640161011556fea264697066735822122063e846207af82bd39d711b4b55289ab15a5b31ff34cad2338df83d1fc449d0ba64736f6c63430008150033",
    "linkReferences": {}
  },
  "methodIdentifiers": {
    "generalRevert()": "401d65ca",
    "myAddress()": "26b85ee1",
    "optimalRevert()": "593c223b"
  },
  "id": 34
}