{
  "abi": [
    {
      "inputs": [],
      "name": "badCaching",
      "outputs": [
        {
          "internalType": "uint256",
          "name": "",
          "type": "uint256"
        }
      ],
      "stateMutability": "nonpayable",
      "type": "function"
    },
    {
      "inputs": [],
      "name": "goodCaching",
      "outputs": [
        {
          "internalType": "uint256",
          "name": "",
          "type": "uint256"
        }
      ],
      "stateMutability": "nonpayable",
      "type": "function"
    },
    {
      "inputs": [],
      "name": "lastGasUsedOptimized",
      "outputs": [
        {
          "internalType": "uint256",
          "name": "",
          "type": "uint256"
        }
      ],
      "stateMutability": "view",
      "type": "function"
    },
    {
      "inputs": [],
      "name": "lastGasUsedRegular",
      "outputs": [
        {
          "internalType": "uint256",
          "name": "",
          "type": "uint256"
        }
      ],
      "stateMutability": "view",
      "type": "function"
    },
    {
      "inputs": [
        {
          "internalType": "uint256",
          "name": "",
          "type": "uint256"
        }
      ],
      "name": "myArray",
      "outputs": [
        {
          "internalType": "uint256",
          "name": "",
          "type": "uint256"
        }
      ],
      "stateMutability": "view",
      "type": "function"
    }
  ],
  "bytecode": {
    "object": "0x61058060405260016080908152600260a052600360c052600460e052600561010052600661012052600761014052600861016052600961018052600a6101a052600b6101c0819052600c6101e0819052600d610200819052600e610220819052600f6102408190526010610260819052601161028081905260126102a081905260136102c081905260146102e08190526103008a90526103208990526103408890526103608790526103808690526103a08590526103c08490526103e08390526104008290526104208190526104409990995261046097909752610480959095526104a0939093526104c0919091526104e05261050052610520526105405261056052610110906000906028610123565b5034801561011d57600080fd5b50610188565b828054828255906000526020600020908101928215610163579160200282015b82811115610163578251829060ff16905591602001919060010190610143565b5061016f929150610173565b5090565b5b8082111561016f5760008155600101610174565b6101ef806101976000396000f3fe608060405234801561001057600080fd5b50600436106100575760003560e01c80636b51f6301461005c5780636eecf67b14610076578063cc3e57d91461007f578063e150422b14610092578063ea5287131461009a575b600080fd5b6100646100a3565b60405190815260200160405180910390f35b61006460015481565b61006461008d366004610158565b6100ed565b61006461010e565b61006460025481565b6000805a905060005b6000548110156100d657806100c081610187565b91505080806100ce90610187565b9150506100ac565b505a6100e290826101a0565b600281905592915050565b600081815481106100fd57600080fd5b600091825260209091200154905081565b6000805a905060005b600054811015610141578061012b81610187565b915050808061013990610187565b915050610117565b505a61014d90826101a0565b600181905592915050565b60006020828403121561016a57600080fd5b5035919050565b634e487b7160e01b600052601160045260246000fd5b60006001820161019957610199610171565b5060010190565b818103818111156101b3576101b3610171565b9291505056fea2646970667358221220efeeb001097ce69b2b9dc30330893e71c6658b4bf9bae61a6ee0dc442076c11764736f6c63430008150033",
    "linkReferences": {}
  },
  "methodIdentifiers": {
    "badCaching()": "e150422b",
    "goodCaching()": "6b51f630",
    "lastGasUsedOptimized()": "ea528713",
    "lastGasUsedRegular()": "6eecf67b",
    "myArray(uint256)": "cc3e57d9"
  },
  "id": 18
}