{
  "abi": [
    {
      "inputs": [],
      "name": "bigNumber",
      "outputs": [
        {
          "internalType": "uint256",
          "name": "",
          "type": "uint256"
        }
      ],
      "stateMutability": "view",
      "type": "function"
    },
    {
      "inputs": [],
      "name": "getValues",
      "outputs": [
        {
          "internalType": "uint8",
          "name": "",
          "type": "uint8"
        },
        {
          "internalType": "uint8",
          "name": "",
          "type": "uint8"
        },
        {
          "internalType": "uint256",
          "name": "",
          "type": "uint256"
        }
      ],
      "stateMutability": "view",
      "type": "function"
    },
    {
      "inputs": [],
      "name": "numberOne",
      "outputs": [
        {
          "internalType": "uint8",
          "name": "",
          "type": "uint8"
        }
      ],
      "stateMutability": "view",
      "type": "function"
    },
    {
      "inputs": [],
      "name": "numberTwo",
      "outputs": [
        {
          "internalType": "uint8",
          "name": "",
          "type": "uint8"
        }
      ],
      "stateMutability": "view",
      "type": "function"
    },
    {
      "inputs": [
        {
          "internalType": "uint8",
          "name": "numOne",
          "type": "uint8"
        },
        {
          "internalType": "uint8",
          "name": "numTwo",
          "type": "uint8"
        },
        {
          "internalType": "uint256",
          "name": "bigNum",
          "type": "uint256"
        }
      ],
      "name": "setValues",
      "outputs": [],
      "stateMutability": "nonpayable",
      "type": "function"
    }
  ],
  "bytecode": {
    "object": "0x608060405234801561001057600080fd5b50610192806100206000396000f3fe608060405234801561001057600080fd5b50600436106100575760003560e01c806319eb4a901461005c57806345964e9e1461008b57806375b5c660146100a25780638318d015146100c6578063f3b7c4b7146100fd575b600080fd5b6000546001546040805160ff808516825261010090940490931660208401528201526060015b60405180910390f35b61009460015481565b604051908152602001610082565b6000546100b490610100900460ff1681565b60405160ff9091168152602001610082565b6100fb6100d4366004610120565b6000805460ff9384166101000261ffff199091169390941692909217929092179055600155565b005b6000546100b49060ff1681565b803560ff8116811461011b57600080fd5b919050565b60008060006060848603121561013557600080fd5b61013e8461010a565b925061014c6020850161010a565b915060408401359050925092509256fea26469706673582212204601b83da1e07281f54201686cb2afd8a32ac89662553340ae0c9c88e5c20c9c64736f6c63430008150033",
    "linkReferences": {}
  },
  "methodIdentifiers": {
    "bigNumber()": "45964e9e",
    "getValues()": "19eb4a90",
    "numberOne()": "f3b7c4b7",
    "numberTwo()": "75b5c660",
    "setValues(uint8,uint8,uint256)": "8318d015"
  },
  "id": 18
}