{
  "abi": [
    {
      "inputs": [],
      "name": "bigNumber",
      "outputs": [
        {
          "internalType": "uint256",
          "name": "",
          "type": "uint256"
        }
      ],
      "stateMutability": "view",
      "type": "function"
    },
    {
      "inputs": [],
      "name": "getValues",
      "outputs": [
        {
          "internalType": "uint8",
          "name": "",
          "type": "uint8"
        },
        {
          "internalType": "uint256",
          "name": "",
          "type": "uint256"
        },
        {
          "internalType": "uint8",
          "name": "",
          "type": "uint8"
        }
      ],
      "stateMutability": "view",
      "type": "function"
    },
    {
      "inputs": [],
      "name": "numberOne",
      "outputs": [
        {
          "internalType": "uint8",
          "name": "",
          "type": "uint8"
        }
      ],
      "stateMutability": "view",
      "type": "function"
    },
    {
      "inputs": [],
      "name": "numberTwo",
      "outputs": [
        {
          "internalType": "uint8",
          "name": "",
          "type": "uint8"
        }
      ],
      "stateMutability": "view",
      "type": "function"
    },
    {
      "inputs": [
        {
          "internalType": "uint8",
          "name": "numOne",
          "type": "uint8"
        },
        {
          "internalType": "uint256",
          "name": "bigNum",
          "type": "uint256"
        },
        {
          "internalType": "uint8",
          "name": "numTwo",
          "type": "uint8"
        }
      ],
      "name": "setValues",
      "outputs": [],
      "stateMutability": "nonpayable",
      "type": "function"
    }
  ],
  "bytecode": {
    "object": "0x608060405234801561001057600080fd5b50610191806100206000396000f3fe608060405234801561001057600080fd5b50600436106100575760003560e01c806312a0a58e1461005c57806319eb4a901461009457806345964e9e146100c657806375b5c660146100dd578063f3b7c4b7146100fc575b600080fd5b61009261006a36600461011f565b6000805460ff94851660ff199182161790915560019290925560028054919093169116179055565b005b6000546001546002546040805160ff948516815260208101939093529216918101919091526060015b60405180910390f35b6100cf60015481565b6040519081526020016100bd565b6002546100ea9060ff1681565b60405160ff90911681526020016100bd565b6000546100ea9060ff1681565b803560ff8116811461011a57600080fd5b919050565b60008060006060848603121561013457600080fd5b61013d84610109565b92506020840135915061015260408501610109565b9050925092509256fea264697066735822122004805df53a910c246c31faed51f6a13b671b0d307c3d0753cc1772b8a20c749364736f6c63430008150033",
    "linkReferences": {}
  },
  "methodIdentifiers": {
    "bigNumber()": "45964e9e",
    "getValues()": "19eb4a90",
    "numberOne()": "f3b7c4b7",
    "numberTwo()": "75b5c660",
    "setValues(uint8,uint256,uint8)": "12a0a58e"
  },
  "id": 18
}