{
  "abi": [
    {
      "inputs": [
        {
          "internalType": "uint256",
          "name": "value",
          "type": "uint256"
        }
      ],
      "name": "addition",
      "outputs": [
        {
          "internalType": "uint256",
          "name": "",
          "type": "uint256"
        }
      ],
      "stateMutability": "nonpayable",
      "type": "function"
    },
    {
      "inputs": [
        {
          "internalType": "uint256",
          "name": "value",
          "type": "uint256"
        }
      ],
      "name": "additionOptimized",
      "outputs": [
        {
          "internalType": "uint256",
          "name": "",
          "type": "uint256"
        }
      ],
      "stateMutability": "nonpayable",
      "type": "function"
    },
    {
      "inputs": [],
      "name": "lastGasUsedOptimized",
      "outputs": [
        {
          "internalType": "uint256",
          "name": "",
          "type": "uint256"
        }
      ],
      "stateMutability": "view",
      "type": "function"
    },
    {
      "inputs": [],
      "name": "lastGasUsedRegular",
      "outputs": [
        {
          "internalType": "uint256",
          "name": "",
          "type": "uint256"
        }
      ],
      "stateMutability": "view",
      "type": "function"
    },
    {
      "inputs": [],
      "name": "number",
      "outputs": [
        {
          "internalType": "uint256",
          "name": "",
          "type": "uint256"
        }
      ],
      "stateMutability": "view",
      "type": "function"
    },
    {
      "inputs": [],
      "name": "number2",
      "outputs": [
        {
          "internalType": "uint256",
          "name": "",
          "type": "uint256"
        }
      ],
      "stateMutability": "view",
      "type": "function"
    }
  ],
  "bytecode": {
    "object": "0x608060405260016000556001805534801561001957600080fd5b506101b5806100296000396000f3fe608060405234801561001057600080fd5b50600436106100625760003560e01c8063543209b71461006757806364cb6eb91461008c5780636eecf67b1461009f5780638381f58a146100a857806390c52443146100b1578063ea528713146100ba575b600080fd5b61007a610075366004610124565b6100c3565b60405190815260200160405180910390f35b61007a61009a366004610124565b6100f6565b61007a60025481565b61007a60005481565b61007a60015481565b61007a60035481565b6000805a9050826000808282546100da9190610153565b90915550505a6100ea908261016c565b60028190559392505050565b6000805a90508260015461010a9190610153565b6001555a610118908261016c565b60038190559392505050565b60006020828403121561013657600080fd5b5035919050565b634e487b7160e01b600052601160045260246000fd5b808201808211156101665761016661013d565b92915050565b818103818111156101665761016661013d56fea2646970667358221220277635808c22d33abb39927b035d50fdb40381f7096dd5cca3169c108e15bd3864736f6c63430008150033",
    "linkReferences": {}
  },
  "methodIdentifiers": {
    "addition(uint256)": "543209b7",
    "additionOptimized(uint256)": "64cb6eb9",
    "lastGasUsedOptimized()": "ea528713",
    "lastGasUsedRegular()": "6eecf67b",
    "number()": "8381f58a",
    "number2()": "90c52443"
  },
  "id": 18
}